:020000040800F2
:100000000000022039230008DD200008DF2000085E
:10001000E1200008E3200008E520000800000000BF
:10002000000000000000000000000000E7200008C1
:10003000E920000800000000EB200008ED20000887
:1000400089230008892300088923000889230008E0
:1000500089230008892300088923000889230008D0
:1000600089230008892300088923000889230008C0
:1000700089230008892300088923000889230008B0
:1000800089230008892300088923000889230008A0
:100090008923000889230008892300088923000890
:1000A0008923000889230008892300088923000880
:1000B00089230008F5200008892300088923000807
:1000C0008923000889230008892300088923000860
:1000D00089230008052100088923000889230008D6
:1000E0008923000889230008892300088923000840
:1000F0008923000889230008892300088923000830
:10010000892300088923000889230008892300081F
:10011000892300088923000889230008892300080F
:1001200089230008892300088923000889230008FF
:1001300089230008892300088923000889230008EF
:1001400089230008892300088923000889230008DF
:1001500089230008892300088923000889230008CF
:1001600089230008892300088923000889230008BF
:100170008923000889230008892300080000000063
:0801800089230008892300080F
:1001C00010B5054C237833B9044B13B10448AFF391
:1001D00000800123237010BD080A002000000000E9
:1001E0003011010808B5034B1BB103490348AFF3B5
:1001F000008008BD000000000C0A0020301101083A
:1002000081F0004102E000BF83F0004330B54FEAC7
:1002100041044FEA430594EA050F08BF90EA020F34
:100220001FBF54EA000C55EA020C7FEA645C7FEAC7
:10023000655C00F0E2804FEA5454D4EB5555B8BFEA
:100240006D420CDD2C4480EA020281EA030382EA5B
:10025000000083EA010180EA020281EA0303362DED
:1002600088BF30BD11F0004F4FEA01314FF4801CC0
:100270004CEA113102D0404261EB410113F0004FD2
:100280004FEA03334CEA133302D0524263EB430389
:1002900094EA050F00F0A780A4F10104D5F1200E27
:1002A0000DDB02FA0EFC22FA05F2801841F1000182
:1002B00003FA0EF2801843FA05F359410EE0A5F156
:1002C00020050EF1200E012A03FA0EFC28BF4CF087
:1002D000020C43FA05F3C01851EBE37101F000453D
:1002E00007D54FF0000EDCF1000C7EEB00006EEB4A
:1002F0000101B1F5801F1BD3B1F5001F0CD34908D4
:100300005FEA30004FEA3C0C04F101044FEA44522A
:1003100012F5800F80F09A80BCF1004F08BF5FEAB1
:10032000500C50F1000041EB045141EA050130BD91
:100330005FEA4C0C404141EB0101013C28BFB1F5A3
:10034000801FE9D291F0000F04BF01460020B1FAEE
:1003500081F308BF2033A3F10B03B3F120020CDAC1
:100360000C3208DD02F1140CC2F10C0201FA0CF09F
:1003700021FA02F10CE002F11402D8BFC2F1200C04
:1003800001FA02F120FA0CFCDCBF41EA0C019040BA
:10039000E41AA2BF01EB0451294330BD6FEA040403
:1003A0001F3C1CDA0C340EDC04F11404C4F12002EE
:1003B00020FA04F001FA02F340EA030021FA04F300
:1003C00045EA030130BDC4F10C04C4F1200220FA57
:1003D00002F001FA04F340EA0300294630BD21FA95
:1003E00004F0294630BD94F0000F83F4801306BF5B
:1003F00081F480110134013D4EE77FEA645C18BF4F
:100400007FEA655C29D094EA050F08BF90EA020FE5
:1004100005D054EA000C04BF1946104630BD91EADD
:10042000030F1EBF0021002030BD5FEA545C05D1E0
:100430004000494128BF41F0004130BD14F580041F
:100440003CBF01F5801130BD01F0004545F0FE4193
:1004500041F470014FF0000030BD7FEA645C1ABFC8
:10046000194610467FEA655C1CBF0B46024650EAFF
:10047000013406BF52EA033591EA030F41F400212B
:1004800030BD00BF90F0000F04BF0021704730B5B1
:100490004FF4806404F132044FF000054FF0000186
:1004A00050E700BF90F0000F04BF0021704730B547
:1004B0004FF4806404F1320410F0004548BF40421C
:1004C0004FF000013EE700BF42004FEAE2014FEA71
:1004D00031014FEA02701FBF12F07F4393F07F4F4C
:1004E00081F06051704732F07F4208BF704793F04F
:1004F0007F4F04BF41F40021704730B54FF4607462
:1005000001F0004521F000411CE700BF50EA010264
:1005100008BF704730B54FF000050AE050EA01020D
:1005200008BF704730B511F0004502D5404261EB7D
:1005300041014FF4806404F132045FEA915C3FF4BE
:10054000D8AE4FF003025FEADC0C18BF03325FEA5B
:10055000DC0C18BF033202EBDC02C2F1200300FA0C
:1005600003FC20FA02F001FA03FE40EA0E0021FA31
:1005700002F11444BDE600BF70B54FF0FF0C4CF41F
:10058000E06C1CEA11541DBF1CEA135594EA0C0FD1
:1005900095EA0C0F00F0DEF82C4481EA030621EA0C
:1005A0004C5123EA4C5350EA013518BF52EA033547
:1005B00041F4801143F4801338D0A0FB02CE4FF0F9
:1005C0000005E1FB02E506F00042E0FB03E54FF029
:1005D0000006E1FB03569CF0000F18BF4EF0010E21
:1005E000A4F1FF04B6F5007F64F5407404D25FEA1D
:1005F0004E0E6D4146EB060642EAC62141EA5551D0
:100600004FEAC52040EA5E504FEACE2EB4F1FD0C11
:1006100088BFBCF5E06F1ED8BEF1004F08BF5FEA8F
:10062000500E50F1000041EB045170BD06F0004641
:1006300046EA010140EA020081EA0301B4EB5C04EE
:10064000C2BFD4EB0C0541EA045170BD41F48011E6
:100650004FF0000E013C00F3AB8014F1360FDEBF0B
:10066000002001F0004170BDC4F10004203C35DAE7
:100670000C341BDC04F11404C4F1200500FA05F36A
:1006800020FA04F001FA05F240EA020001F000420B
:1006900021F0004110EBD37021FA04F642EB060181
:1006A0005EEA430E08BF20EAD37070BDC4F10C04AB
:1006B000C4F1200500FA04F320FA05F001FA04F26F
:1006C00040EA020001F0004110EBD37041F100015B
:1006D0005EEA430E08BF20EAD37070BDC4F1200566
:1006E00000FA05F24EEA020E20FA04F301FA05F2CE
:1006F00043EA020321FA04F001F0004121FA04F276
:1007000020EA020000EBD3705EEA430E08BF20EA45
:10071000D37070BD94F0000F0FD101F0004640007F
:1007200041EB010111F4801F08BF013CF7D041EA01
:10073000060195F0000F18BF704703F00046520005
:1007400043EB030313F4801F08BF013DF7D043EAD6
:100750000603704794EA0C0F0CEA135518BF95EA8C
:100760000C0F0CD050EA410618BF52EA4306D1D113
:1007700081EA030101F000414FF0000070BD50EA32
:10078000410606BF1046194652EA430619D094EABC
:100790000C0F02D150EA013613D195EA0C0F05D1A6
:1007A00052EA03361CBF104619460AD181EA0301FA
:1007B00001F0004141F0FE4141F470014FF00000B2
:1007C00070BD41F0FE4141F4780170BD70B54FF04D
:1007D000FF0C4CF4E06C1CEA11541DBF1CEA1355CD
:1007E00094EA0C0F95EA0C0F00F0A7F8A4EB0504AF
:1007F00081EA030E52EA03354FEA013100F08880A6
:100800004FEA03334FF0805545EA131343EA12636E
:100810004FEA022245EA111545EA10654FEA002623
:100820000EF000419D4208BF964244F1FD0404F5DC
:10083000407402D25B084FEA3202B61A65EB030538
:100840005B084FEA32024FF480104FF4002CB6EBF5
:10085000020E75EB030E22BFB61A754640EA0C0075
:100860005B084FEA3202B6EB020E75EB030E22BFB5
:10087000B61A754640EA5C005B084FEA3202B6EBF6
:10088000020E75EB030E22BFB61A754640EA9C00B5
:100890005B084FEA3202B6EB020E75EB030E22BF85
:1008A000B61A754640EADC0055EA060E18D04FEA43
:1008B000051545EA16754FEA06164FEAC30343EAE3
:1008C00052734FEAC2025FEA1C1CC0D111F4801FB0
:1008D0000BD141EA00014FF000004FF0004CB6E7A9
:1008E00011F4801F04BF01430020B4F1FD0C88BF48
:1008F000BCF5E06F3FF6AFAEB5EB030C04BFB6EB53
:10090000020C5FEA500C50F1000041EB045170BD45
:100910000EF0004E4EEA113114EB5C04C2BFD4EB72
:100920000C0541EA045170BD41F480114FF0000EF6
:10093000013C90E645EA060E8DE60CEA135594EA72
:100940000C0F08BF95EA0C0F3FF43BAF94EA0C0F75
:100950000AD150EA01347FF434AF95EA0C0F7FF4EA
:1009600025AF104619462CE795EA0C0F06D152EA3E
:1009700003353FF4FDAE1046194622E750EA410622
:1009800018BF52EA43067FF4C5AE50EA41047FF433
:100990000DAF52EA43057FF4EBAE12E74FEA410296
:1009A000B2F1E04324BFB3F5001CDCF1FE5C0DD9CD
:1009B00001F0004C4FEAC0024CEA5070B2F1004F17
:1009C00040EB830008BF20F00100704711F0804F1A
:1009D00021D113F13872BCBF01F00040704741F4DF
:1009E00080114FEA5252C2F11802C2F1200C10FAE3
:1009F0000CF320FA02F018BF40F001004FEAC123C7
:100A00004FEAD32303FA0CFC40EA0C0023FA02F36A
:100A10004FEA4303CCE77FEA625307D150EA013340
:100A20001EBF4FF0FE4040F44000704701F0004010
:100A300040F0FE4040F40000704700BF80F00040EE
:100A400002E000BF81F0004142001FBF5FEA4103A6
:100A500092EA030F7FEA226C7FEA236C6AD04FEAA6
:100A60001262D2EB1363C1BFD218414048404140EB
:100A7000B8BF5B42192B88BF704710F0004F40F49D
:100A8000000020F07F4018BF404211F0004F41F4B9
:100A9000000121F07F4118BF494292EA030F3FD085
:100AA000A2F1010241FA03FC10EB0C00C3F1200398
:100AB00001FA03F100F0004302D5494260EB400027
:100AC000B0F5000F13D3B0F1807F06D340084FEA92
:100AD000310102F10102FE2A51D2B1F1004F40EB87
:100AE000C25008BF20F0010040EA030070474900EF
:100AF00040EB0000013A28BFB0F5000FEDD2B0FA8C
:100B000080FCACF1080CB2EB0C0200FA0CF0AABFAE
:100B100000EBC25052421843BCBFD040184370474C
:100B200092F0000F81F4000106BF80F40000013252
:100B3000013BB5E74FEA41037FEA226C18BF7FEA29
:100B4000236C21D092EA030F04D092F0000F08BF6B
:100B50000846704790EA010F1CBF0020704712F052
:100B60007F4F04D1400028BF40F00040704712F191
:100B700000723CBF00F50000704700F0004343F0F6
:100B8000FE4040F4000070477FEA226216BF08462C
:100B90007FEA23630146420206BF5FEA412390EAEF
:100BA000010F40F4800070474FF0000304E000BFE5
:100BB00010F0004348BF40425FEA000C08BF704796
:100BC00043F0964301464FF000001CE050EA01025A
:100BD00008BF70474FF000030AE000BF50EA01026F
:100BE00008BF704711F0004302D5404261EB41015C
:100BF0005FEA010C02BF84460146002043F0B64381
:100C000008BFA3F18053A3F50003BCFA8CF2083AA5
:100C1000A3EBC25310DB01FA02FC634400FA02FCAE
:100C2000C2F12002BCF1004F20FA02F243EB0200B5
:100C300008BF20F00100704702F1200201FA02FC17
:100C4000C2F1200250EA4C0021FA02F243EB02000A
:100C500008BF20EADC7070474FF0FF0C1CEAD0524E
:100C60001EBF1CEAD15392EA0C0F93EA0C0F6FD00F
:100C70001A4480EA010C400218BF5FEA41211ED0ED
:100C80004FF0006343EA501043EA5111A0FB0131D9
:100C90000CF00040B1F5000F3EBF490041EAD371AE
:100CA0005B0040EA010062F17F02FD2A1DD8B3F12A
:100CB000004F40EBC25008BF20F00100704790F099
:100CC000000F0CF0004C08BF49024CEA502040EAEB
:100CD00051207F3AC2BFD2F1FF0340EAC2507047B1
:100CE00040F400004FF00003013A5DDC12F1190FEF
:100CF000DCBF00F000407047C2F10002410021FA61
:100D000002F1C2F1200200FA02FC5FEA310040F178
:100D1000000053EA4C0308BF20EADC70704792F0F1
:100D2000000F00F0004C02BF400010F4000F013A29
:100D3000F9D040EA0C0093F0000F01F0004C02BF24
:100D4000490011F4000F013BF9D041EA0C018FE793
:100D50000CEAD15392EA0C0F18BF93EA0C0F0AD099
:100D600030F0004C18BF31F0004CD8D180EA0100BF
:100D700000F00040704790F0000F17BF90F0004F58
:100D8000084691F0000F91F0004F14D092EA0C0F3A
:100D900001D142020FD193EA0C0F03D14B0218BFCD
:100DA000084608D180EA010000F0004040F0FE4013
:100DB00040F40000704740F0FE4040F440007047AF
:100DC0004FF0FF0C1CEAD0521EBF1CEAD15392EA2E
:100DD0000C0F93EA0C0F69D0A2EB030280EA010C1E
:100DE00049024FEA402037D04FF0805343EA1111B7
:100DF00043EA10130CF000408B4238BF5B0042F115
:100E00007D024FF4000C8B4224BF5B1A40EA0C00B9
:100E1000B3EB510F24BFA3EB510340EA5C00B3EBEB
:100E2000910F24BFA3EB910340EA9C00B3EBD10FD9
:100E300024BFA3EBD10340EADC001B0118BF5FEA2B
:100E40001C1CE0D1FD2A3FF650AF8B4240EBC25054
:100E500008BF20F0010070470CF0004C4CEA502015
:100E60007F32C2BFD2F1FF0340EAC250704740F464
:100E700000004FF00003013A37E792F0000F00F056
:100E8000004C02BF400010F4000F013AF9D040EAD4
:100E90000C0093F0000F01F0004C02BF490011F468
:100EA000000F013BF9D041EA0C0195E70CEAD15360
:100EB00092EA0C0F08D142027FF47DAF93EA0C0F47
:100EC0007FF470AF084676E793EA0C0F04D14B022B
:100ED0003FF44CAF08466EE730F0004C18BF31F0DD
:100EE000004CCAD130F000427FF45CAF31F00043D7
:100EF0007FF43CAF5FE700BF4FF0FF3C06E000BF70
:100F00004FF0010C02E000BF4FF0010C4DF804CD92
:100F10004FEA40024FEA41037FEA226C18BF7FEAA2
:100F2000236C11D001B052EA530C18BF90EA010FA4
:100F300058BFB2EB030088BFC81738BF6FEAE17033
:100F400018BF40F0010070477FEA226C02D15FEACF
:100F5000402C05D17FEA236CE4D15FEA412CE1D03B
:100F60005DF8040B704700BF844608466146FFE702
:100F70000FB5FFF7C9FF002848BF10F1000F0FBDE4
:100F80004DF808EDFFF7F4FF0CBF012000205DF8DD
:100F900008FB00BF4DF808EDFFF7EAFF34BF012062
:100FA00000205DF808FB00BF4DF808EDFFF7E0FFFB
:100FB00094BF012000205DF808FB00BF4DF808ED4C
:100FC000FFF7D2FF94BF012000205DF808FB00BFAF
:100FD0004DF808EDFFF7C8FF34BF012000205DF891
:100FE00008FB00BF4FEA4002B2F1FE4F0FD34FF0B3
:100FF0009E03B3EB12620DD94FEA002343F0004386
:1010000010F0004F23FA02F018BF404270474FF033
:101010000000704712F1610F01D1420205D110F0BA
:10102000004008BF6FF0004070474FF0000070476D
:1010300042000ED2B2F1FE4F0BD34FF09E03B3EB42
:10104000126209D44FEA002343F0004323FA02F06E
:1010500070474FF00000704712F1610F01D142025A
:1010600002D14FF0FF3070474FF00000704700BFD3
:101070007BB972B90029BEBF00204FF0004106E0E5
:1010800008BF00281CBF6FF000414FF0FF3000F098
:10109000BFB9ADF1080C6DE904CE002909DB002BC6
:1010A0001ADB00F04DF8DDF804E0DDE9022304B0BE
:1010B0007047404261EB4101002B1BDB00F040F820
:1010C000DDF804E0DDE9022304B0404261EB4101B8
:1010D000524263EB43037047524263EB430300F019
:1010E0002FF8DDF804E0DDE9022304B0404261EBB3
:1010F00041017047524263EB430300F021F8DDF8F1
:1011000004E0DDE9022304B0524263EB430370477D
:1011100053B94AB9002908BF00281CBF4FF0FF315E
:101120004FF0FF3000F074B9ADF1080C6DE904CE5A
:1011300000F006F8DDF804E0DDE9022304B07047B2
:101140002DE9F047089E0D4604468846002B4DD1F8
:101150008A42944668D9B2FA82F252B101FA02F395
:10116000C2F1200120FA01F10CFA02FC41EA030865
:1011700094404FEA1C45210CB8FBF5FE1FFA8CF792
:1011800005FB1E8341EA03430EFB07F199420BD98D
:101190001CEB03030EF1FF3080F01E81994240F2F8
:1011A0001B81AEF1020E63445B1AA4B2B3FBF5F0EF
:1011B00005FB103344EA034400FB07F7A7420AD9B2
:1011C0001CEB040400F1FF3380F00881A74240F2D9
:1011D000058164440238E41B40EA0E4000211EB140
:1011E000D4400023C6E90043BDE8F0878B4208D90C
:1011F000002E00F0EE800021C6E900050846BDE89B
:10120000F087B3FA83F100294AD1AB4202D382427C
:1012100000F2F980841A65EB030301209846002E42
:10122000E2D0C6E90048DFE702B9FFDEB2FA82F297
:10123000002A40F09180A1EB0C054FEA1C471FFAF1
:101240008CFE0121B5FBF7F307FB1350250C45EA93
:1012500000450EFB03F0A84208D91CEB050503F17D
:10126000FF3802D2A84200F2CB8043462D1AA4B226
:10127000B5FBF7F007FB105544EA05440EFB00FEF2
:10128000A64508D91CEB040400F1FF3502D2A6459F
:1012900000F2BB802846A4EB0E0440EA03409EE720
:1012A000C1F120078B4022FA07FC4CEA030C20FA1C
:1012B00007F405FA01F31C43FD404FEA1C4900FA0C
:1012C00001F3B5FBF9F8200C1FFA8CFE09FB185549
:1012D00040EA054508FB0EF0A84202FA01F20BD9DC
:1012E0001CEB050508F1FF3A80F08880A84240F227
:1012F0008580A8F1020865442D1AA4B2B5FBF9F067
:1013000009FB105544EA054500FB0EFEAE4508D921
:101310001CEB050500F1FF346CD2AE456AD90238EA
:10132000654440EA0840A0FB0294A5EB0E05A542E7
:10133000C846A64656D353D05EB1B3EB080265EB60
:101340000E0505FA07F722FA01F3CD401F43C6E95F
:1013500000750021BDE8F087C2F1200320FA03F1F7
:101360000CFA02FC25FA03F395400D434FEA1C47A3
:101370001FFA8CFEB3FBF7F107FB11302B0C43EA8D
:10138000004301FB0EF0984204FA02F408D91CEB6A
:10139000030301F1FF382FD298422DD9023963445B
:1013A0001B1AADB2B3FBF7F007FB103345EA034558
:1013B00000FB0EF3AB4208D91CEB050500F1FF382A
:1013C00016D2AB4214D902386544ED1A40EA014105
:1013D00038E73146304607E78646E5E61846FAE63E
:1013E0004B45A9D2B9EB020864EB0C0E0138A3E718
:1013F0004046EAE7204694E74146D1E7D0467BE7FE
:10140000023B654432E7084609E76444023842E794
:10141000704700BF00000000000000000000000056
:1014200000000000000000000000000000000000BC
:1014300000000000000000000000000000000000AC
:1014400090F800F06DE9024520F007016FF0000C04
:1014500010F0070491F820F040F049804FF00004AC
:101460006FF00700D1E9002391F840F000F1080087
:1014700082FA4CF2A4FA8CF283FA4CF3A2FA8CF3BF
:101480004BBBD1E9022382FA4CF200F10800A4FA26
:101490008CF283FA4CF3A2FA8CF3E3B9D1E904237A
:1014A00082FA4CF200F10800A4FA8CF283FA4CF3B1
:1014B000A2FA8CF37BB9D1E9062301F1200182FA6B
:1014C0004CF200F10800A4FA8CF283FA4CF3A2FA71
:1014D0008CF3002BC6D0002A04BF04301A4612BA7F
:1014E000B2FA82F2FDE8024500EBD2007047D1E982
:1014F000002304F00305C4F100004FEAC50514F011
:10150000040F91F840F00CFA05F562EA05021CBFE1
:1015100063EA050362464FF00004A9E700000000FB
:1015200001F0FF01102A2BDB10F0070F08D010F894
:10153000013B013A8B422DD010F0070F42B3F6D198
:10154000F0B441EA012141EA014122F007047FF0B1
:1015500000070023F0E80256083C85EA010586EA08
:10156000010685FA47F5A3FA87F586FA47F6A5FA44
:1015700087F68EB9EED1F0BC01F0FF0102F0070250
:1015800032B110F8013B013A83EA010313B1F8D1FB
:101590000020704701387047002D06BF35460338DC
:1015A000073815F0010F07D1013015F4807F02BF15
:1015B000013015F4C03F0130F0BC0138704700BF66
:1015C000844641EA000313F003036DD1403A41D34E
:1015D00051F8043B40F8043B51F8043B40F8043B0D
:1015E00051F8043B40F8043B51F8043B40F8043BFD
:1015F00051F8043B40F8043B51F8043B40F8043BED
:1016000051F8043B40F8043B51F8043B40F8043BDC
:1016100051F8043B40F8043B51F8043B40F8043BCC
:1016200051F8043B40F8043B51F8043B40F8043BBC
:1016300051F8043B40F8043B51F8043B40F8043BAC
:1016400051F8043B40F8043B51F8043B40F8043B9C
:10165000403ABDD2303211D351F8043B40F8043B3C
:1016600051F8043B40F8043B51F8043B40F8043B7C
:1016700051F8043B40F8043B103AEDD20C3205D34C
:1016800051F8043B40F8043B043AF9D2043208D044
:10169000D2071CBF11F8013B00F8013B01D30B88B6
:1016A00003806046704700BF082A13D38B078DD094
:1016B00010F003038AD0C3F10403D21ADB071CBF66
:1016C00011F8013B00F8013B80D331F8023B20F8D0
:1016D000023B7BE7043AD9D3013A11F8013B00F809
:1016E000013BF9D20B7803704B7843708B78837091
:1016F000604670474FF0FF3C06E000BF4FF0010C22
:1017000002E000BF4FF0010C4DF804CD4FEA410C50
:101710007FEA6C5C4FEA430C18BF7FEA6C5C1BD01D
:1017200001B050EA410C0CBF52EA430C91EA030F9E
:1017300002BF90EA020F0020704710F1000F91EAFB
:10174000030F58BF994208BF90422CBFD8176FEAC9
:10175000E37040F0010070474FEA410C7FEA6C5C97
:1017600002D150EA013C07D14FEA430C7FEA6C5C9E
:10177000D6D152EA033CD3D05DF8040B704700BFCA
:101780008446104662468C461946634600E000BF18
:1017900001B5FFF7B7FF002848BF10F1000F01BDEA
:1017A0004DF808EDFFF7F4FF0CBF012000205DF8B5
:1017B00008FB00BF4DF808EDFFF7EAFF34BF01203A
:1017C00000205DF808FB00BF4DF808EDFFF7E0FFD3
:1017D00094BF012000205DF808FB00BF4DF808ED24
:1017E000FFF7CEFF94BF012000205DF808FB00BF8B
:1017F0004DF808EDFFF7C4FF34BF012000205DF86D
:1018000008FB00BF4FEA410C7FEA6C5C02D150EA52
:10181000013C0AD14FEA430C7FEA6C5C02D152EAE8
:10182000033C02D14FF0000070474FF001007047B9
:101830004FEA410212F5001215D211D56FF47873F8
:10184000B3EB625212D94FEAC12343F0004343EA9B
:10185000505311F0004F23FA02F018BF4042704776
:101860004FF00000704750EA013005D111F0004000
:1018700008BF6FF0004070474FF00000704700BF96
:10188000F0B587B00023019302930393049305936B
:101890001F4B1B680BB107B0F0BD01211C4B196039
:1018A000002600961B4B9A6B0A439A639B6B0B4076
:1018B0000093009B019102270297032504950C24B5
:1018C000059401A9144805F0E9F84FF680730193D7
:1018D000029703960495059401A9104805F0DEF8D7
:1018E0004CF233730193029703960495059401A972
:1018F0000B4805F0D3F84FF48063019302970396E9
:101900000495059401A9074805F0C8F8C3E700BF8E
:10191000240A002000380240001402400010024057
:10192000000C02400018024000B58FB0002307935E
:10193000089309930A930B930C930D9300930193CF
:101940000293039304930593069319484FF02042A2
:10195000026002F58272426004228260C360036109
:10196000102242618361C361036243624FF480517C
:101970008162C3624FF480410163436383634364C4
:101980000F2108911A2309930B9211230C930191B3
:1019900001210291049205936A4607A906F0F0F925
:1019A00010B90FB05DF804FB00F05AF9F9E700BF79
:1019B000280A002008B5FFF763FF08BDF0B58DB019
:1019C00000240794089409940A940B9400943C4BC7
:1019D0001A6B42F010021A631A6B02F010020092A6
:1019E000009A01941A6B42F004021A631A6B02F017
:1019F00004020192019A02941A6B42F020021A63C7
:101A00001A6B02F020020292029A03941A6B42F0BF
:101A100001021A631A6B02F001020392039A049402
:101A20001A6B42F008021A631A6B02F00802049261
:101A3000049A05941A6B42F040021A631A6B02F082
:101A400040020592059A06941A6B42F002021A634C
:101A50001B6B03F002030693069B1A4F22460821D4
:101A6000384605F014F9184E22464FF43C613046D2
:101A700005F00DF9082307930125089509940A94A8
:101A800007A9384605F00AF84FF400530793089465
:101A9000099407A90D4805F001F84FF43C6307933A
:101AA000089509940A9407A9304604F0F7FF0795B2
:101AB0000894099407A9064804F0F0FF0DB0F0BDA2
:101AC00000380240001002400014024000080240AA
:101AD0000000024008B50B480B4B03600B4B436002
:101AE00000238360C3604FF48042026143618361DD
:101AF000C361036205F01EFB00B908BD00F0B0F839
:101B0000FBE700BF780A002000540040A0860100D7
:101B100030B589B00023039304930593069307938C
:101B20000268144B9A4201D009B030BD00250195DE
:101B3000114C236B43F002032363236B03F0020376
:101B40000193019B4FF440730393122304930323E7
:101B500006930423079303A9084804F09FFF029506
:101B6000236C43F400132364236C03F400130293E7
:101B7000029BD9E7005400400038024000040240B4
:101B800000B583B001904FF6FF73012201A903480D
:101B900006F0CFFC019803B05DF804FB1C0B00209D
:101BA00008B5214A137801331370204802F0D0F9A8
:101BB0004FF6FF714FF4784002F0D6F91C4B1B88AA
:101BC0001C4A12880021084602F020F902F0C6F9EA
:101BD0001949002002F08EF902F0C0F91749C088B7
:101BE00002F088F902F0BAF9C088400080B21449C6
:101BF00002F080F902F0B2F9C08800EB4000114910
:101C000080B202F077F9002002F0B8F902F0A6F9EC
:101C1000C088800080B20C4902F06CF94FF4FC607F
:101C200002F0ACF908BD00BFCC0A0020040000207F
:101C30001800002016000020481101085811010862
:101C400070110108841101089811010808B502F00B
:101C5000C9F902F0D1F902F0BBF902F0EFF808BDC2
:101C600072B6FEE700B595B03022002108A806F054
:101C700073FF002303930493059306930793019343
:101C80001E4A116C41F080511164126C02F08052B6
:101C90000192019A02931A4A116841F4804111603D
:101CA000126802F480420292029A022208920121F2
:101CB0000B9110210C910E920F930823109348233F
:101CC000119312920423139308A805F035FD80B9EF
:101CD0000F23039302210491002305934FF48053B3
:101CE0000693079303A805F075FF20B915B05DF8BA
:101CF00004FBFFF7B5FFFFF7B3FF00BF003802405A
:101D0000007000402DE97043C2B001238DF8073107
:101D10008DF8063104F0B8FDFFF7A4FFFFF74EFE83
:101D2000FFF702FE00F056FA00F0ACFAFFF7D2FE21
:101D300000F08AFB09E0C8230D22C249C24806F020
:101D4000F8FB4FF4FA7004F0CBFD00F095FB00288F
:101D5000F1D1BD4CC8230A22BC49204606F0E9FB5C
:101D6000002002F00BF902F0F9F8C38803EB4303FB
:101D7000580080B2B64902F0BDF8FFF767FFFFF7E1
:101D80000FFFB44806F09CFF002002F0F7F802F0C5
:101D9000E5F8C08800EB8000AF4980B202F0AAF8F5
:101DA000C8230F22AD49204606F0C3FB002002F0F5
:101DB000E5F802F0D3F8C088C0EBC000A84980B2B3
:101DC00002F098F804F000FD0028FBD108E0C820DC
:101DD00004F086FDC8231622A2499B4806F0A9FB01
:101DE00003F0E4FC06460028F1D1C82313229E49E3
:101DF000954806F09EFB35464EE002F0D5F802F01D
:101E0000F1F89A4806F05CFF35A806F0F7FE28A81E
:101E100006F0F4FE964806F053FF964806F050FF91
:101E20004FF61F0002F0AAF802F098F8C08800EB05
:101E30004000400080B202F0A7F802F08FF8C0889E
:101E400000EB4000400080B28B4902F053F802F0F2
:101E500085F8C088C0EBC00080B202F095F802F0AF
:101E60007DF8C088C0EBC000844980B202F042F81F
:101E700002F074F8C088C00080B202F085F802F069
:101E80006DF8C088C00080B27D4902F033F8354655
:101E900002E0012D00F084800DF207110DF5837032
:101EA00000F053FB9DF80721764935A806F010FF96
:101EB0009DF80621744928A806F00AFF002000F0CA
:101EC00073FB04460028E4D002F048F8002002F03A
:101ED0005BF802F043F8C08802F056F802F03EF8D2
:101EE000C088400080B202F04FF802F037F8C08896
:101EF00000EB400080B202F047F802F02FF8C088F3
:101F0000800080B202F040F802F028F8C08800EBB0
:101F1000800080B202F038F8012C3FF46EAF022C42
:101F2000B7D102F04BF802F053F8584806F0C8FE5B
:101F300047F6FF7002F022F802F010F8C38803EBB6
:101F40004300400080B202F01FF802F007F8C38897
:101F500003EB4300400080B24D4901F0CBFF01F09C
:101F6000FDFFC088C0EBC00080B202F00DF801F0A8
:101F7000F5FFC088C0EBC000464980B201F0BAFF4F
:101F800001F0ECFFC088C00080B201F0FDFF01F05D
:101F9000E5FFC088C00080B2394901F0ABFF0125E0
:101FA00025AA26A927A803F053FC18B1642004F041
:101FB00097FC71E70DF18E0224A90DF1920004F057
:101FC0006CFB22AA0DF18A0123A804F043FB279899
:101FD000FEF77AFA804689462598FEF775FACDE92C
:101FE00002012698FEF770FACDE9000142464B4601
:101FF000294904A806F06CFE04A806F0FFFDBDF90F
:102000008E300093BDF99030BDF99220234904A889
:1020100006F05EFE04A806F0F1FDBDF988300093DD
:10202000BDF98A30BDF98C201D4904A806F050FE88
:1020300004A806F0E3FD0E4806F042FE0D4806F047
:102040003FFEB3E7A41101081C0B0020B4110108E6
:10205000C0110108D0110108F4110108DC110108B8
:10206000EC110108001201081812010850120108B1
:1020700078120108D8110108A8120108B01201084D
:10208000D01201082C12010840120108F0120108B8
:1020900018130108201301083C1301086C130108F0
:1020A000A813010882B0002100910B4B5A6C42F436
:1020B00080425A645A6C02F480420092009A019164
:1020C0001A6C42F080521A641B6C03F08053019327
:1020D000019B02B0704700BF00380240FEE7FEE7F8
:1020E000FEE7FEE7FEE770477047704708B504F06B
:1020F000E5FB08BD08B5024805F0A0FE08BD00BF1D
:10210000D40A002008B5024806F00AFB08BD00BF4B
:102110001C0B00200120704708B506F0BFFC1623F9
:1021200003604FF0FF3008BD08B54FF0FF31FFF7F7
:10213000F3FFFEE770B50C461646002506E0AFF348
:102140000080214601F8010B01350C46B542F6DB53
:10215000304670BD70B50C461646002504E014F8F4
:10216000010BFFF70DFD0135B542F8DB304670BDC0
:102170004FF0FF3070474FF400534B600020704722
:10218000012070470020704710B503460C4A0D49E6
:102190000D48006840B10C4800680344521A93424D
:1021A00006D8094A136010BD0748084C0460F2E7DE
:1021B00006F074FC0C2303604FF0FF30F3E700BF20
:1021C0000000022000040000D00A0020C00B002004
:1021D0007047000000B587B0002302930393049377
:1021E0000593009301931548154A02604722426007
:1021F00083604FF6FF72C2600361836105F040FFA8
:1022000090B94FF48053029302A90C4805F070FF77
:1022100068B90023009301936946084805F0E8FF78
:1022200040B907B05DF804FBFFF71AFDE9E7FFF7D7
:1022300017FDEEE7FFF714FDF3E700BFD40A002017
:102240000004004002680E4B9A4200D0704700B56F
:1022500083B00021019103F50D331A6C42F00202A4
:102260001A641B6C03F002030193019B0A461D20B4
:1022700004F05CFB1D2004F091FB03B05DF804FB4F
:102280000004004008B50A480A4B03604FF4E133EC
:10229000436000238360C36003610C224261836159
:1022A000C36106F017F900B908BDFFF7D9FCFBE7D9
:1022B0001C0B00200010014010B588B000230393D0
:1022C0000493059306930793026803F1804303F593
:1022D00088339A4201D008B010BD0024019403F560
:1022E00094335A6C42F010025A645A6C02F0100295
:1022F0000192019A02941A6B42F001021A631B6B5D
:1023000003F001030293029B4FF4C0630393022383
:102310000493032306930723079303A9054804F0B6
:10232000BDFB22462146252004F000FB252004F0B9
:1023300035FBD0E700000240DFF834D00D480E49ED
:102340000E4A002302E0D458C4500433C4188C420F
:10235000F9D30B4A0B4C002301E013600432A24274
:10236000FBD3FFF735FF06F09FFBFFF7CBFC704771
:102370000000022000000020080A0020743D01082F
:10238000080A0020C00B0020FEE70000164B1B6867
:10239000196A41F21112114208D1196A40F24442FD
:1023A000114203D11A6822F001021A600E4B1B6819
:1023B00000225A621A6842F001021A600A4B1A6837
:1023C000536A9BB28342F9D3116A41F21113194245
:1023D00008D1116A40F24443194203D1136823F033
:1023E00001031360704700BFD40A002000B587B016
:1023F000002301930293039304930593082301930D
:102400000123029303930223049301A9024804F0D9
:1024100045FB07B05DF804FB0010024000B587B033
:1024200000230193029303930493059308230193DC
:102430000123039301A9034804F030FB07B05DF8C2
:1024400004FB00BF0010024010B5FFF7CFFF094C9E
:1024500000220821204604F01AFC142004F040FA5F
:1024600001220821204604F012FC1E20FFF78EFFF7
:1024700010BD00BF0010024010B5FFF7CFFF0024D1
:102480000821124804F0FCFB012807D1632C05D871
:102490000134E4B20120FFF779FFF1E7632C11D892
:1024A000002404E00134E4B20120FFF76FFF0821AB
:1024B000064804F0E5FB08B9632CF3D9632C03D874
:1024C000002010BD0120FCE70120FAE700100240C7
:1024D00010B5002404E00134E4B20120FFF756FFF8
:1024E0000821114804F0CCFB01281AD1632CF2D941
:1024F000002404E00134E4B20120FFF747FF082183
:10250000094804F0BDFB08B9632CF3D92820FFF774
:102510003DFF0821044804F0B3FB012800D000204F
:1025200010BD0024EBE700BF0010024038B50025C5
:10253000284607E04000C4B2FFF7CAFF2043C0B2FC
:102540000135EDB2072DF5D938BDF0B583B006469B
:102550000D46FFF779FFFFF78FFF10B907460446D6
:102560000AE0012719E0FFF7E1FF04F108036B44DB
:1025700003F8080C0134E4B2042CF4D99DF80010DF
:102580009DF801300B449DF8022013449DF8030090
:1025900003449DF80400834202D0384603B0F0BDE6
:1025A00031702A70F9E7000010B510B1214B0122FB
:1025B0001A70204B1B7863B101211F4804F060FBA7
:1025C00001280FD04FF400511C4804F059FB01289A
:1025D00008D00121184804F053FB0446C0B1002480
:1025E000204610BD052004F07BF9124B00221A7022
:1025F0000121114804F044FB04460128F0D04FF4B7
:1026000000510E4804F03CFB012810D00024E7E7FD
:102610004FF4005100F1804000F5023004F030FB2F
:102620000028DDD1034A012111700446D8E70224B5
:10263000D6E700BF0C000020000002400008024066
:1026400082B0019002E0019B013B0193019B002BB2
:10265000F9D102B0704782B0019002E0019B013BCA
:102660000193019B002BF9D102B070474FF0D0438A
:10267000188070474FF0D0435880704708B54FF42A
:102680007040FFF7F3FF5520FFF7F4FF4FF2010012
:10269000FFF7ECFFAA20FFF7EDFF4FF20200FFF774
:1026A000E5FF5220FFF7E6FF4FF20300FFF7DEFFE2
:1026B0000820FFF7DFFF4FF20400FFF7D7FF0120EC
:1026C000FFF7D8FF4FF43040FFF7D0FF0D20FFF7A2
:1026D000D1FF4BF20100FFF7C9FF0D20FFF7CAFF42
:1026E0004BF20200FFF7C2FF0D20FFF7C3FF4FF4CC
:1026F0003140FFF7BBFF0D20FFF7BCFF4BF201108D
:10270000FFF7B4FF0D20FFF7B5FF4BF20210FFF704
:10271000ADFF0D20FFF7AEFF4FF43240FFF7A6FFED
:102720000020FFF7A7FF4BF20120FFF79FFF0020DB
:10273000FFF7A0FF4BF20220FFF798FF0020FFF702
:1027400099FF4FF43640FFF791FF4420FFF792FFC7
:102750004BF20160FFF78AFF4420FFF78BFF4BF23B
:102760000260FFF783FF4420FFF784FF4FF43740F8
:10277000FFF77CFF3420FFF77DFF4BF20170FFF77E
:1027800075FF3420FFF776FF4BF20270FFF76EFF04
:102790003420FFF76FFF4FF43840FFF767FF342016
:1027A000FFF768FF4BF60100FFF760FF3420FFF7EB
:1027B00061FF4BF60200FFF759FF3420FFF75AFF85
:1027C0004FF43F40FFF752FF0120FFF753FF4FF454
:1027D0003340FFF74BFF0F20FFF74CFF4BF2013068
:1027E000FFF744FF0F20FFF745FF4BF20230FFF7E2
:1027F0003DFF0F20FFF73EFF4FF43940FFF736FF54
:102800003420FFF737FF4BF60110FFF72FFF34207E
:10281000FFF730FF4BF60210FFF728FF3420FFF7D9
:1028200029FF4FF43540FFF721FF0820FFF722FF73
:102830004BF20150FFF71AFF0820FFF71BFF4BF286
:102840000250FFF713FF0820FFF714FF4FF4424038
:10285000FFF70CFF0320FFF70DFF4FF43A40FFF79F
:1028600005FF3420FFF706FF4BF60120FFF7FEFEC1
:102870003420FFF7FFFE4BF60220FFF7F7FE34206F
:10288000FFF7F8FE4FF43C40FFF7F0FE0020FFF7A3
:10289000F1FE4BF60140FFF7E9FE7820FFF7EAFE74
:1028A0004BF60240FFF7E2FE0020FFF7E3FE4FF495
:1028B0003D40FFF7DBFE0020FFF7DCFE4BF601504A
:1028C000FFF7D4FE7820FFF7D5FE4BF60250FFF756
:1028D000CDFE0020FFF7CEFE4FF43E40FFF7C6FED0
:1028E0000020FFF7C7FE4BF60160FFF7BFFE642034
:1028F000FFF7C0FE4FF45140FFF7B8FE0020FFF78E
:10290000B9FE4DF20110FFF7B1FE3320FFF7B2FE22
:102910004DF20210FFF7AAFE0020FFF7ABFE4DF2CA
:102920000310FFF7A3FE3420FFF7A4FE4DF20410BE
:10293000FFF79CFE0020FFF79DFE4DF20510FFF70C
:1029400095FE3A20FFF796FE4DF20610FFF78EFE39
:102950000020FFF78FFE4DF20710FFF787FE4A2099
:10296000FFF788FE4DF20810FFF780FE0020FFF70A
:1029700081FE4DF20910FFF779FE5C20FFF77AFE29
:102980004DF20A10FFF772FE0020FFF773FE4DF2C2
:102990000B10FFF76BFE8120FFF76CFE4DF20C1061
:1029A000FFF764FE0020FFF765FE4DF20D10FFF704
:1029B0005DFEA620FFF75EFE4DF20E10FFF756FEFD
:1029C0000020FFF757FE4DF20F10FFF74FFEE520F6
:1029D000FFF750FE4DF21010FFF748FE0120FFF701
:1029E00049FE4DF21110FFF741FE1320FFF742FEA2
:1029F0004DF21210FFF73AFE0120FFF73BFE4DF2B9
:102A00001310FFF733FE5420FFF734FE4DF214107D
:102A1000FFF72CFE0120FFF72DFE4DF21510FFF7FA
:102A200025FE8220FFF726FE4DF21610FFF71EFE50
:102A30000120FFF71FFE4DF21710FFF717FECA2007
:102A4000FFF718FE4DF21810FFF710FE0220FFF7F7
:102A500011FE4DF21910FFF709FE0020FFF70AFEE4
:102A60004DF21A10FFF702FE0220FFF703FE4DF2AF
:102A70001B10FFF7FBFD0120FFF7FCFD4DF21C10C2
:102A8000FFF7F4FD0220FFF7F5FD4DF21D10FFF7F3
:102A9000EDFD3420FFF7EEFD4DF21E10FFF7E6FDD1
:102AA0000220FFF7E7FD4DF21F10FFF7DFFD672063
:102AB000FFF7E0FD4DF22010FFF7D8FD0220FFF7F1
:102AC000D9FD4DF22110FFF7D1FD8420FFF7D2FD93
:102AD0004DF22210FFF7CAFD0220FFF7CBFD4DF2A9
:102AE0002310FFF7C3FDA420FFF7C4FD4DF224100F
:102AF000FFF7BCFD0220FFF7BDFD4DF22510FFF7EB
:102B0000B5FDB720FFF7B6FD4DF22610FFF7AEFD7D
:102B10000220FFF7AFFD4DF22710FFF7A7FDCF20F2
:102B2000FFF7A8FD4DF22810FFF7A0FD0220FFF7E8
:102B3000A1FD4DF22910FFF799FDDE20FFF79AFD68
:102B40004DF22A10FFF792FD0220FFF793FD4DF2A0
:102B50002B10FFF78BFDF220FFF78CFD4DF22C10B0
:102B6000FFF784FD0220FFF785FD4DF22D10FFF7E2
:102B70007DFDFE20FFF77EFD4DF22E10FFF776FD66
:102B80000320FFF777FD4DF22F10FFF76FFD1020A8
:102B9000FFF770FD4DF23010FFF768FD0320FFF7DF
:102BA00069FD4DF23110FFF761FD3320FFF762FD43
:102BB0004DF23210FFF75AFD0320FFF75BFD4DF297
:102BC0003310FFF753FD6D20FFF754FD4FF45240D3
:102BD000FFF74CFD0020FFF74DFD4DF20120FFF700
:102BE00045FD3320FFF746FD4DF20220FFF73EFD85
:102BF0000020FFF73FFD4DF20320FFF737FD3420A3
:102C0000FFF738FD4DF20420FFF730FD0020FFF7FD
:102C100031FD4DF20520FFF729FD3A20FFF72AFD8F
:102C20004DF20620FFF722FD0020FFF723FD4DF2B5
:102C30000720FFF71BFD4A20FFF71CFD4DF208207F
:102C4000FFF714FD0020FFF715FD4DF20920FFF7F7
:102C50000DFD5C20FFF70EFD4DF20A20FFF706FD8B
:102C60000020FFF707FD4DF20B20FFF7FFFC81204E
:102C7000FFF700FD4DF20C20FFF7F8FC0020FFF7F6
:102C8000F9FC4DF20D20FFF7F1FCA620FFF7F2FC56
:102C90004DF20E20FFF7EAFC0020FFF7EBFC4DF2AF
:102CA0000F20FFF7E3FCE520FFF7E4FC4DF21020D6
:102CB000FFF7DCFC0120FFF7DDFC4DF21120FFF7F0
:102CC000D5FC1320FFF7D6FC4DF21220FFF7CEFC07
:102CD0000120FFF7CFFC4DF21320FFF7C7FC542073
:102CE000FFF7C8FC4DF21420FFF7C0FC0120FFF7EE
:102CF000C1FC4DF21520FFF7B9FC8220FFF7BAFCAA
:102D00004DF21620FFF7B2FC0120FFF7B3FC4DF2A5
:102D10001720FFF7ABFCCA20FFF7ACFC4DF21820E0
:102D2000FFF7A4FC0220FFF7A5FC4DF21920FFF7E6
:102D30009DFC0020FFF79EFC4DF21A20FFF796FC49
:102D40000220FFF797FC4DF21B20FFF78FFC0120BC
:102D5000FFF790FC4DF21C20FFF788FC0220FFF7E4
:102D600089FC4DF21D20FFF781FC3420FFF782FC27
:102D70004DF21E20FFF77AFC0220FFF77BFC4DF29C
:102D80001F20FFF773FC6720FFF774FC4DF2202033
:102D9000FFF76CFC0220FFF76DFC4DF22120FFF7DE
:102DA00065FC8420FFF766FC4DF22220FFF75EFCF5
:102DB0000220FFF75FFC4DF22320FFF757FCA42011
:102DC000FFF758FC4DF22420FFF750FC0220FFF7DC
:102DD00051FC4DF22520FFF749FCB720FFF74AFCD4
:102DE0004DF22620FFF742FC0220FFF743FC4DF294
:102DF0002720FFF73BFCCF20FFF73CFC4DF22820BB
:102E0000FFF734FC0220FFF735FC4DF22920FFF7D5
:102E10002DFCDE20FFF72EFC4DF22A20FFF726FCCA
:102E20000220FFF727FC4DF22B20FFF71FFCF220BA
:102E3000FFF720FC4DF22C20FFF718FC0220FFF7D3
:102E400019FC4DF22D20FFF711FCFE20FFF712FCBC
:102E50004DF22E20FFF70AFC0320FFF70BFC4DF28A
:102E60002F20FFF703FC1020FFF704FC4DF2302069
:102E7000FFF7FCFB0320FFF7FDFB4DF23120FFF7CE
:102E8000F5FB3320FFF7F6FB4DF23220FFF7EEFBA8
:102E90000320FFF7EFFB4DF23320FFF7E7FB6D2038
:102EA000FFF7E8FB4FF45340FFF7E0FB0020FFF78C
:102EB000E1FB4DF20130FFF7D9FB3320FFF7DAFBDE
:102EC0004DF20230FFF7D2FB0020FFF7D3FB4DF2AB
:102ED0000330FFF7CBFB3420FFF7CCFB4DF204307F
:102EE000FFF7C4FB0020FFF7C5FB4DF20530FFF7ED
:102EF000BDFB3A20FFF7BEFB4DF20630FFF7B6FBF5
:102F00000020FFF7B7FB4DF20730FFF7AFFB4A2079
:102F1000FFF7B0FB4DF20830FFF7A8FB0020FFF7EA
:102F2000A9FB4DF20930FFF7A1FB5C20FFF7A2FBE4
:102F30004DF20A30FFF79AFB0020FFF79BFB4DF2A2
:102F40000B30FFF793FB8120FFF794FB4DF20C3021
:102F5000FFF78CFB0020FFF78DFB4DF20D30FFF7E4
:102F600085FBA620FFF786FB4DF20E30FFF77EFBB8
:102F70000020FFF77FFB4DF20F30FFF777FBE520D6
:102F8000FFF778FB4DF21030FFF770FB0120FFF7E1
:102F900071FB4DF21130FFF769FB1320FFF76AFB5D
:102FA0004DF21230FFF762FB0120FFF763FB4DF299
:102FB0001330FFF75BFB5420FFF75CFB4DF214303E
:102FC000FFF754FB0120FFF755FB4DF21530FFF7DB
:102FD0004DFB8220FFF74EFB4DF21630FFF746FB0C
:102FE0000120FFF747FB4DF21730FFF73FFBCA20E8
:102FF000FFF740FB4DF21830FFF738FB0220FFF7D8
:1030000039FB4DF21930FFF731FB0020FFF732FB9F
:103010004DF21A30FFF72AFB0220FFF72BFB4DF28F
:103020001B30FFF723FB0120FFF724FB4DF21C3080
:10303000FFF71CFB0220FFF71DFB4DF21D30FFF7D1
:1030400015FB3420FFF716FB4DF21E30FFF70EFB89
:103050000220FFF70FFB4DF21F30FFF707FB672041
:10306000FFF708FB4DF22030FFF700FB0220FFF7CF
:1030700001FB4DF22130FFF7F9FA8420FFF7FAFA4D
:103080004DF22230FFF7F2FA0220FFF7F3FA4DF289
:103090002330FFF7EBFAA420FFF7ECFA4DF22430CF
:1030A000FFF7E4FA0220FFF7E5FA4DF22530FFF7CB
:1030B000DDFAB720FFF7DEFA4DF22630FFF7D6FA39
:1030C0000220FFF7D7FA4DF22730FFF7CFFACF20D3
:1030D000FFF7D0FA4DF22830FFF7C8FA0220FFF7C9
:1030E000C9FA4DF22930FFF7C1FADE20FFF7C2FA24
:1030F0004DF22A30FFF7BAFA0220FFF7BBFA4DF281
:103100002B30FFF7B3FAF220FFF7B4FA4DF22C3070
:10311000FFF7ACFA0220FFF7ADFA4DF22D30FFF7C2
:10312000A5FAFE20FFF7A6FA4DF22E30FFF79EFA21
:103130000320FFF79FFA4DF22F30FFF797FA102088
:10314000FFF798FA4DF23030FFF790FA0320FFF7BF
:1031500091FA4DF23130FFF789FA3320FFF78AFAFE
:103160004DF23230FFF782FA0320FFF783FA4DF277
:103170003330FFF77BFA6D20FFF77CFA4FF45440B1
:10318000FFF774FA0020FFF775FA4DF20140FFF7E0
:103190006DFA3320FFF76EFA4DF20240FFF766FA40
:1031A0000020FFF767FA4DF20340FFF75FFA342083
:1031B000FFF760FA4DF20440FFF758FA0020FFF7DE
:1031C00059FA4DF20540FFF751FA3A20FFF752FA4B
:1031D0004DF20640FFF74AFA0020FFF74BFA4DF296
:1031E0000740FFF743FA4A20FFF744FA4DF2084040
:1031F000FFF73CFA0020FFF73DFA4DF20940FFF7D8
:1032000035FA5C20FFF736FA4DF20A40FFF72EFA46
:103210000020FFF72FFA4DF20B40FFF727FA81202D
:10322000FFF728FA4DF20C40FFF720FA0020FFF7D5
:1032300021FA4DF20D40FFF719FAA620FFF71AFA0E
:103240004DF20E40FFF712FA0020FFF713FA4DF28D
:103250000F40FFF70BFAE520FFF70CFA4DF2104094
:10326000FFF704FA0120FFF705FA4DF21140FFF7CE
:10327000FDF91320FFF7FEF94DF21240FFF7F6F9C2
:103280000120FFF7F7F94DF21340FFF7EFF9542053
:10329000FFF7F0F94DF21440FFF7E8F90120FFF7CE
:1032A000E9F94DF21540FFF7E1F98220FFF7E2F965
:1032B0004DF21640FFF7DAF90120FFF7DBF94DF286
:1032C0001740FFF7D3F9CA20FFF7D4F94DF21840A1
:1032D000FFF7CCF90220FFF7CDF94DF21940FFF7C7
:1032E000C5F90020FFF7C6F94DF21A40FFF7BEF905
:1032F0000220FFF7BFF94DF21B40FFF7B7F901209D
:10330000FFF7B8F94DF21C40FFF7B0F90220FFF7C4
:10331000B1F94DF21D40FFF7A9F93420FFF7AAF9E2
:103320004DF21E40FFF7A2F90220FFF7A3F94DF27C
:103330001F40FFF79BF96720FFF79CF94DF22040F3
:10334000FFF794F90220FFF795F94DF22140FFF7BE
:103350008DF98420FFF78EF94DF22240FFF786F9B0
:103360000220FFF787F94DF22340FFF77FF9A420F1
:10337000FFF780F94DF22440FFF778F90220FFF7BC
:1033800079F94DF22540FFF771F9B720FFF772F98F
:103390004DF22640FFF76AF90220FFF76BF94DF274
:1033A0002740FFF763F9CF20FFF764F94DF228407B
:1033B000FFF75CF90220FFF75DF94DF22940FFF7B6
:1033C00055F9DE20FFF756F94DF22A40FFF74EF986
:1033D0000220FFF74FF94DF22B40FFF747F9F2209B
:1033E000FFF748F94DF22C40FFF740F90220FFF7B4
:1033F00041F94DF22D40FFF739F9FE20FFF73AF978
:103400004DF22E40FFF732F90320FFF733F94DF26A
:103410002F40FFF72BF91020FFF72CF94DF2304029
:10342000FFF724F90320FFF725F94DF23140FFF7AC
:103430001DF93320FFF71EF94DF23240FFF716F960
:103440000320FFF717F94DF23340FFF70FF96D2016
:10345000FFF710F94FF45540FFF708F90020FFF788
:1034600009F94DF20150FFF701F93320FFF702F996
:103470004DF20250FFF7FAF80020FFF7FBF84DF28B
:103480000350FFF7F3F83420FFF7F4F84DF204503F
:10349000FFF7ECF80020FFF7EDF84DF20550FFF7CD
:1034A000E5F83A20FFF7E6F84DF20650FFF7DEF8B0
:1034B0000020FFF7DFF84DF20750FFF7D7F84A205A
:1034C000FFF7D8F84DF20850FFF7D0F80020FFF7CB
:1034D000D1F84DF20950FFF7C9F85C20FFF7CAF8A0
:1034E0004DF20A50FFF7C2F80020FFF7C3F84DF283
:1034F0000B50FFF7BBF88120FFF7BCF84DF20C50E2
:10350000FFF7B4F80020FFF7B5F84DF20D50FFF7C4
:10351000ADF8A620FFF7AEF84DF20E50FFF7A6F873
:103520000020FFF7A7F84DF20F50FFF79FF8E520B6
:10353000FFF7A0F84DF21050FFF798F80120FFF7C1
:1035400099F84DF21150FFF791F81320FFF792F818
:103550004DF21250FFF78AF80120FFF78BF84DF279
:103560001350FFF783F85420FFF784F84DF21450FE
:10357000FFF77CF80120FFF77DF84DF21550FFF7BB
:1035800075F88220FFF776F84DF21650FFF76EF8C7
:103590000120FFF76FF84DF21750FFF767F8CA20C8
:1035A000FFF768F84DF21850FFF760F80220FFF7B8
:1035B00061F84DF21950FFF759F80020FFF75AF85B
:1035C0004DF21A50FFF752F80220FFF753F84DF270
:1035D0001B50FFF74BF80120FFF74CF84DF21C5041
:1035E000FFF744F80220FFF745F84DF21D50FFF7B2
:1035F0003DF83420FFF73EF84DF21E50FFF736F845
:103600000220FFF737F84DF21F50FFF72FF8672021
:10361000FFF730F84DF22050FFF728F80220FFF7AF
:1036200029F84DF22150FFF721F88420FFF722F806
:103630004DF22250FFF71AF80220FFF71BF84DF267
:103640002350FFF713F8A420FFF714F84DF224508D
:10365000FFF70CF80220FFF70DF84DF22550FFF7A9
:1036600005F8B720FFF706F84DF22650FEF7FEFFEB
:103670000220FEF7FFFF4DF22750FEF7F7FFCF20A5
:10368000FEF7F8FF4DF22850FEF7F0FF0220FEF79C
:10369000F1FF4DF22950FEF7E9FFDE20FEF7EAFFC9
:1036A0004DF22A50FEF7E2FF0220FEF7E3FF4DF253
:1036B0002B50FEF7DBFFF220FEF7DCFF4DF22C5023
:1036C000FEF7D4FF0220FEF7D5FF4DF22D50FEF796
:1036D000CDFFFE20FEF7CEFF4DF22E50FEF7C6FFC7
:1036E0000320FEF7C7FF4DF22F50FEF7BFFF10205B
:1036F000FEF7C0FF4DF23050FEF7B8FF0320FEF793
:10370000B9FF4DF23150FEF7B1FF3320FEF7B2FFA3
:103710004DF23250FEF7AAFF0320FEF7ABFF4DF249
:103720003350FEF7A3FF6D20FEF7A4FF4FF4564081
:10373000FEF79CFF0020FEF79DFF4DF20160FEF7B3
:1037400095FF3320FEF796FF4DF20260FEF78EFFE5
:103750000020FEF78FFF4DF20360FEF787FF342055
:10376000FEF788FF4DF20460FEF780FF0020FEF7B1
:1037700081FF4DF20560FEF779FF3A20FEF77AFFF0
:103780004DF20660FEF772FF0020FEF773FF4DF268
:103790000760FEF76BFF4A20FEF76CFF4DF20860F2
:1037A000FEF764FF0020FEF765FF4DF20960FEF7AB
:1037B0005DFF5C20FEF75EFF4DF20A60FEF756FFEC
:1037C0000020FEF757FF4DF20B60FEF74FFF812000
:1037D000FEF750FF4DF20C60FEF748FF0020FEF7A9
:1037E00049FF4DF20D60FEF741FFA620FEF742FFB4
:1037F0004DF20E60FEF73AFF0020FEF73BFF4DF260
:103800000F60FEF733FFE520FEF734FF4DF2106046
:10381000FEF72CFF0120FEF72DFF4DF21160FEF7A1
:1038200025FF1320FEF726FF4DF21260FEF71EFF64
:103830000120FEF71FFF4DF21360FEF717FF542023
:10384000FEF718FF4DF21460FEF710FF0120FEF79F
:1038500011FF4DF21560FEF709FF8220FEF70AFF07
:103860004DF21660FEF702FF0120FEF703FF4DF256
:103870001760FEF7FBFECA20FEF7FCFE4DF2186053
:10388000FEF7F4FE0220FEF7F5FE4DF21960FEF79A
:10389000EDFE0020FEF7EEFE4DF21A60FEF7E6FEAA
:1038A0000220FEF7E7FE4DF21B60FEF7DFFE01206F
:1038B000FEF7E0FE4DF21C60FEF7D8FE0220FEF798
:1038C000D9FE4DF21D60FEF7D1FE3420FEF7D2FE88
:1038D0004DF21E60FEF7CAFE0220FEF7CBFE4DF24F
:1038E0001F60FEF7C3FE6720FEF7C4FE4DF22060A6
:1038F000FEF7BCFE0220FEF7BDFE4DF22160FEF792
:10390000B5FE8420FEF7B6FE4DF22260FEF7AEFE55
:103910000220FEF7AFFE4DF22360FEF7A7FEA420C3
:10392000FEF7A8FE4DF22460FEF7A0FE0220FEF78F
:10393000A1FE4DF22560FEF799FEB720FEF79AFE34
:103940004DF22660FEF792FE0220FEF793FE4DF246
:103950002760FEF78BFECF20FEF78CFE4DF228602D
:10396000FEF784FE0220FEF785FE4DF22960FEF789
:103970007DFEDE20FEF77EFE4DF22A60FEF776FE2B
:103980000220FEF777FE4DF22B60FEF76FFEF2206D
:10399000FEF770FE4DF22C60FEF768FE0220FEF787
:1039A00069FE4DF22D60FEF761FEFE20FEF762FE1D
:1039B0004DF22E60FEF75AFE0320FEF75BFE4DF23D
:1039C0002F60FEF753FE1020FEF754FE4DF23060DC
:1039D000FEF74CFE0320FEF74DFE4DF23160FEF780
:1039E00045FE3320FEF746FE4DF23260FEF73EFE06
:1039F0000320FEF73FFE4DF23360FEF737FE6D20E9
:103A0000FEF738FE4FF47040FEF730FE5520FEF70B
:103A100031FE4FF20100FEF729FEAA20FEF72AFE32
:103A20004FF20200FEF722FE5220FEF723FE4FF275
:103A30000300FEF71BFE0820FEF71CFE4FF20400F9
:103A4000FEF714FE0020FEF715FE4FF43540FEF79A
:103A50000DFE5020FEF70EFE4FF43140FEF706FE3D
:103A6000CC20FEF707FE4BF20110FEF7FFFD002011
:103A7000FEF700FE4FF43640FEF7F8FD0520FEF796
:103A8000F9FD4FF43740FEF7F1FD7720FEF7F2FD28
:103A90004BF20170FEF7EAFD7720FEF7EBFD4FF4E5
:103AA0003840FEF7E3FD0120FEF7E4FD4BF6010090
:103AB000FEF7DCFD0320FEF7DDFD4BF60200FEF70E
:103AC000D5FD0320FEF7D6FD4BF60300FEF7CEFD35
:103AD0000320FEF7CFFD4FF43C40FEF7C7FD022068
:103AE000FEF7C8FD4BF60140FEF7C0FD0020FEF7D3
:103AF000C1FD4BF60240FEF7B9FD0020FEF7BAFD0E
:103B00004FF43D40FEF7B2FD0120FEF7B3FD4BF64A
:103B10000150FEF7ABFD8420FEF7ACFD4BF60250E2
:103B2000FEF7A4FD1C20FEF7A5FD4BF60350FEF7A3
:103B30009DFD1C20FEF79EFD4BF60450FEF796FD02
:103B40000020FEF797FD4FF44940FEF78FFDD0208F
:103B5000FEF790FD4CF60110FEF788FD0220FEF7FF
:103B600089FD4CF60210FEF781FD5020FEF782FD24
:103B70004CF60310FEF77AFD5020FEF77BFD4CF665
:103B80000410FEF773FD5020FEF774FD4FF45850FB
:103B9000FEF76CFD0020FEF76DFD4FF45450FEF76C
:103BA00065FD0020FEF766FD4FF47F40FEF75EFDE9
:103BB000AA20FEF75FFD4FF60170FEF757FD552076
:103BC000FEF758FD4FF60270FEF750FD2520FEF778
:103BD00051FD4FF60370FEF749FD0120FEF74AFD47
:103BE0004FF47C40FEF742FD1620FEF743FD4FF6F2
:103BF0000140FEF73BFDA220FEF73CFD4FF60240E0
:103C0000FEF734FD2620FEF735FD4FF46850FEF731
:103C10002DFD0620FEF72EFD4FF46850FEF726FD21
:103C20005520FEF727FD4FF48850FEF71FFD6FF07B
:103C30007F40FEF705FD4FF42450FEF717FD08BD49
:103C400008B530B101224FF40071054803F01FF8A8
:103C500008BD00224FF40071014803F018F8F7E79F
:103C60000014024010B50B4C00224FF400612046B6
:103C700003F00DF840F6FF20FEF7EDFC01224FF4B3
:103C80000061204603F003F840F6FF20FEF7E3FC56
:103C900010BD00BF00140240072867D810B50446C5
:103CA000334B187010F0010F57D1324B4FF4F072B4
:103CB0001A80314B4FF448721A804FF45850FEF777
:103CC000D5FC6001FEF7D6FC4FF42850FEF7CEFC81
:103CD0000020FEF7CFFC42F60120FEF7C7FC0020D3
:103CE000FEF7C8FC42F60220FEF7C0FC214C2088FB
:103CF0000138C0F30720FEF7BDFC42F60320FEF7B3
:103D0000B5FC20880138C0B2FEF7B4FC4FF42C504B
:103D1000FEF7ACFC0020FEF7ADFC42F60130FEF7EA
:103D2000A5FC0020FEF7A6FC42F60230FEF79EFC42
:103D3000114C20880138C0F30720FEF79BFC42F6A7
:103D40000330FEF793FC20880138C0B2FEF792FCE6
:103D50004FF43050FEF78AFC10BD064B4FF448720A
:103D60001A80054B4FF4F0721A80A6E7704700BF27
:103D7000140000201600002018000020F8B50546A9
:103D80000C4617461E464FF42850FEF76FFC280AD3
:103D9000FEF770FC42F60120FEF768FCE8B2FEF781
:103DA00069FC42F60220FEF761FC3D44681EC0F348
:103DB0000F20FEF75FFC42F60320FEF757FCADB282
:103DC000681EC0B2FEF756FC4FF42C50FEF74EFCB6
:103DD000200AFEF74FFC42F60130FEF747FCE0B246
:103DE000FEF748FC42F60230FEF740FC3444601E09
:103DF000C0F30F20FEF73EFC42F60330FEF736FC20
:103E0000A4B2601EC0B2FEF735FCF8BD70B5144612
:103E10001D46FFF7B3FF04FB05F5074B1E884FF463
:103E20003050FEF723FC002403E03046FEF722FC6E
:103E30000134A542F9D870BD600B002008B5FFF72A
:103E400011FFFEF71BFC084B1878FFF725FF074B07
:103E50001B88074A128800210846FFF7D7FF012078
:103E6000FFF7EEFE08BD00BF140000201800002080
:103E7000160000202DE9F041A2F12006B6B21A4B3F
:103E80001C68A288E38803FB02F8B8F1000F0CDB82
:103E9000C8F3C708276806FB08F6FFF76FFF4FF463
:103EA0003050FEF7E3FB002517E008F10708EFE7C5
:103EB0000E4B1888FEF7DEFB0134E4B2072C0AD85B
:103EC000BB195A5D802323411A42F1D0084B188850
:103ED000FEF7D0FBF0E70135EDB2454501D20024F5
:103EE000ECE7BDE8F08100BF10000020600B00206F
:103EF0000E00002070B505460E46002411E0CB8868
:103F00002B44104909888B4201DD002425462946AF
:103F10002046FFF7AFFF01360B4B1B689B881C4404
:103F2000A4B2327862B1084B19688B8823440748E1
:103F300000888342E3DDC8880544ADB20024DEE793
:103F400070BD00BF180000201000002016000020E7
:103F5000014B1860704700BF10000020014B18682B
:103F6000704700BF10000020024B1880024B1980E0
:103F7000704700BF0E000020600B0020014B18802E
:103F8000704700BF0E00002038B50446054B1D8861
:103F9000FFF7E4FFC3882A4621460020FFF736FFDB
:103FA00038BD00BF1600002008B50022402102489D
:103FB00002F06DFE08BD00BF0014024008B50022EB
:103FC0008021024802F063FE08BD00BF00140240D9
:103FD00008B501224021024802F059FE08BD00BF89
:103FE0000014024008B501228021024802F04FFE71
:103FF00008BD00BF0014024008B501224FF48071D3
:10400000014802F044FE08BD00140240F0B583B040
:1040100007462C4B586801AB04220D21007802F0B2
:1040200005FB00284BD104469DF80420D21002F075
:104030001C029DF80710C1F301131A438DF80020EC
:104040009DF80520D21002F01C02C1F381031A432F
:104050008DF801209DF80630DB1003F01C0301F001
:1040600003010B438DF8023018E007EB8405164B73
:1040700047F8243004E015492868FCF7EDFD286076
:1040800006F108030DEB030212F8083C013BDBB21A
:1040900002F8083C002BEED10134E4B2022C0BD81C
:1040A000264604F108036B4413F8083C002BDCD1CE
:1040B000002347F82430EFE7002003B0F0BD0720CD
:1040C000FBE700BF280000207B14AE3E1D5A843F52
:1040D0002DE9F04385B08146884601A8FFF796FF99
:1040E00000273C460DE021493046FCF753FF20B93C
:1040F0001F493046FCF76CFF10B10123A3401F435A
:104100000134022C2EDCA50059F8240058F8243084
:10411000C01A0028B8BF4042FCF74AFD4FF05E517C
:10412000FCF79AFD064605F110030DEB030555F863
:104130000C5C00212846FCF723FF0028D3D1294638
:104140003046FCF73DFE4FF07E51FCF77BFC20F043
:1041500000400849FCF73CFF0028D1D00123A340D0
:104160001F43CDE7384605B0BDE8F0839A99993EE4
:104170003333733F295C0F3E2DE9F04182B007468F
:104180008846374B586801AB03220D21007802F0B6
:104190004DFA00285FD19DF8043003F01F038DF81D
:1041A00004309DF8053003F01F038DF805309DF8AD
:1041B000063003F01F038DF806300026344626E053
:1041C0002849FCF749FD04F108030DEB030212F83E
:1041D000043C013BDBB202F8043C002BF0D1014669
:1041E0002846FCF7EDFD4FF07E51FCF72BFC20F04C
:1041F00000401D49FCF7ECFE40B10123A3401E43E3
:1042000004E01A48DFE70123A3401E430134022CD7
:1042100022DC57F8240058F82430C01A0028B8BF10
:104220004042FCF7C5FC4FF05E51FCF715FD05461A
:1042300004F108036B4413F8043C002BE1D10C4952
:10424000FCF7A8FE0028DED10A492846FCF7C0FE8C
:104250000028DBD0D7E70726304602B0BDE8F08162
:104260002800002054E3853F295C0F3E0000C84130
:10427000000020410000D24200B583B0234B93F8E8
:104280002430CBB1A0B102238DF807301F4B586802
:1042900019680DF107030122C97B007802F0B2F919
:1042A00048BB9DF80720194B5A7403B05DF804FB16
:1042B00000238DF80730E9E7144B9B7AF3B110B176
:1042C000124B5B7CEBB990B101238DF807300F4B9B
:1042D000586819680DF107030122C97B007802F0C4
:1042E00091F980B99DF80720084B5A74DDE7002347
:1042F0008DF80730EBE74FF0FF30D6E74FF0FF3097
:10430000D3E70020D1E74FF0FF30CEE728000020B0
:10431000F0B589B005460C46164601238DF81430D9
:1043200000238DF81530854B5868196805AB0222BB
:10433000897C007802F066F9002840F0CE81C82020
:1043400002F0CEFA00238DF814307C4B58681968BF
:1043500005AB0122C97B007802F054F9002840F037
:10436000BF81764B5868196805AB012249790078FE
:1043700002F048F9002840F0B681704B586819687F
:1043800005AB0122897C007802F03CF9002840F05E
:10439000AD816A4B5868196805AB0122C97D007868
:1043A00002F030F9002840F0A481644B5868196885
:1043B00005AB01220979007802F024F9002840F0C9
:1043C0009B810C238DF814305C4B5868196805AB41
:1043D00001220979007802F015F9002840F08F8158
:1043E0000F2002F07DFA554B9A6A527A8DF814200C
:1043F0005868196805AB01228978007802F002F943
:10440000002840F07F814D4B9A6A127A8DF8142073
:104410005868196805AB01224978007802F0F2F873
:10442000002840F07281002E79D0444B9B6A9B7A21
:1044300063F01F038DF81430404B5868196805ABC2
:1044400001228979007802F0DDF8002840F06081CF
:10445000002E6AD0394B9B6ADB7A63F01F038DF81C
:104460001430364B5868196805AB0122C9790078B9
:1044700002F0C8F8002840F04E81002E59D14023A8
:104480008DF814302D4B5868196805AB0122097955
:10449000007802F0B7F8002840F0408178238DF8CA
:1044A0001430264B5868196805AB01224979007809
:1044B00002F0A8F8002840F03481322002F010FA0F
:1044C00000238DF814301D4B5868196805AB012284
:1044D0004979007802F096F8002840F02581174BC2
:1044E0005868196805AB0222897A007802F09EF8B4
:1044F0000646002840F01B819DF814309DF8157089
:1045000047EA03270E4BA3FB0737C7F3C707002370
:10451000AB606B602B60A360636023605CE0074B63
:104520009B6A9B7A8DF8143086E718238DF8143037
:1045300097E7C82002F0D4F9A1E700BF28000020C7
:10454000ABAAAAAA9DF814309DF8151041EA0321E0
:1045500009B2ADF804109DF816309DF8172042EA14
:10456000032212B2ADF806209DF818009DF819300C
:1045700043EA00231BB2ADF80830206801442160F3
:1045800061680A446260A2681344A3609DF81A300F
:104590009DF81B1041EA032109B2ADF80C109DF8FB
:1045A0001C309DF81D2042EA032212B2ADF80E2005
:1045B0009DF81E009DF81F3043EA00231BB2ADF8A2
:1045C000103028680144296069680A446A60AA6852
:1045D0001344AB600136F6B2BE420ED2554B58685A
:1045E000196805AB0C22C97A007802F01FF8002880
:1045F000A8D04FF0FF3009B0F0BD29688322002316
:1046000008040914FCF734FD00263A463346FCF74B
:104610002FFD286069688322002308040914FCF731
:1046200027FD3A463346FCF723FD6860A9688322DC
:10463000002308040914FCF71BFD3A463346FCF737
:1046400017FDA8602068031400041946B3422DDB4F
:10465000C00A3A46334640EA4150C912FCF708FD09
:1046600020606068031400041946002B24DBC00A94
:104670003A46334640EA4150C912FCF7F9FC606003
:10468000A068031400041946002B1BDBC00A3A463D
:10469000334640EA4150C912FCF7EAFCA06000280A
:1046A00016DDA0F58030A0600020A4E740F2FF7284
:1046B000801843F10001CBE740F2FF72801843F10C
:1046C0000001D4E740F2FF72801843F10001DDE7FA
:1046D00000F58030A06000208DE74FF0FF308AE7C2
:1046E0004FF0FF3087E74FF0FF3084E74FF0FF30A7
:1046F00081E74FF0FF307EE74FF0FF307BE74FF070
:10470000FF3078E74FF0FF3075E74FF0FF3072E78A
:104710004FF0FF306FE74FF0FF306CE74FF0FF30A6
:1047200069E74FF0FF3066E74FF0FF3063E74FF087
:10473000FF3060E7280000207C4B9B7A002B00F0C4
:10474000D48000B583B000238DF80730774B5868CC
:1047500019680DF107030122C97B007801F052FFAF
:10476000002840F0C580714B586819680DF10703A7
:1047700001224979007801F045FF002840F0BB8014
:104780006A4B586819680DF107030122097900780E
:1047900001F038FF002840F0B180644B93F82430DA
:1047A000002B52D00C238DF80730604B58681968E5
:1047B0000DF1070301220979007801F023FF002899
:1047C00040F09F80322002F08BF8C0238DF8073034
:1047D000564B9B7A13F0010F02D0E0238DF807307F
:1047E000524B586819680DF10703012209790078C6
:1047F00001F008FF002840F087804C4B5B7C03B33E
:1048000002238DF80730494B586819680DF10703EA
:104810000122C97B007801F0F5FE002877D1002342
:104820008DF80730414B586819680DF107030122D4
:104830004979007801F0E6FE00286BD103B05DF8FD
:1048400004FB00238DF80730DDE704238DF80730E3
:10485000364B586819680DF1070301220979007871
:1048600001F0D0FE002858D1304B9B7C23B92F4B50
:104870009B7A13F0010F30D140238DF807302B4B7A
:10488000586819680DF1070301220979007801F0D1
:10489000B9FE002844D1322002F022F8234B5B7C81
:1048A000FBB101238DF80730204B586819680DF1D2
:1048B00007030122C97B007801F0A4FE98BB1B4BC3
:1048C000586853F8101B01224979007801F09AFECC
:1048D0000028B3D04FF0FF30B0E760238DF80730E9
:1048E000CDE700238DF80730DEE74FF0FF3070474B
:1048F0004FF0FF30A2E74FF0FF309FE74FF0FF305F
:104900009CE74FF0FF3099E74FF0FF3096E74FF00C
:10491000FF3093E74FF0FF3090E74FF0FF308DE727
:104920004FF0FF308AE74FF0FF3087E72800002084
:104930000D4B1B7A032B13D8DFE803F002060A0E97
:10494000FA230380002070474FF4FA730380F9E7DD
:104950004FF47A730380F5E74FF4FA630380F1E7CD
:1049600000230380EEE700BF28000020244B9B7A41
:10497000002B3CD000B583B0B0F57A7F33D00BD894
:10498000FA2813D0B0F5FA7F03D108238DF8073049
:104990000FE04FF0FF3023E0B0F5FA6F03D118239A
:1049A0008DF8073005E04FF0FF3019E000238DF857
:1049B0000730134B1B7A9DF80720B3EBD20F19D0A9
:1049C0000F4B586819680DF10703012289790078A7
:1049D00001F018FE80B99DF80730DB08084A137211
:1049E00003B05DF804FB10238DF80730E1E74FF0CA
:1049F000FF3070470020F3E74FF0FF30F0E700BFD3
:104A0000280000200F4B5B7A032B16D8DFE803F059
:104A1000020C0F12022303700A4BDB7C83B1037874
:104A20005B0003700020704704230370F4E7082341
:104A30000370F1E710230370EEE74FF0FF3070478B
:104A40000020704728000020234B9B7A002B35D094
:104A500000B583B002380E2833D8DFE800F0083202
:104A60002332323227323232323232322B000023BA
:104A70008DF80730184B5B7A9DF80720B3EBD20F07
:104A800024D0154B586819680DF107030122C97924
:104A9000007801F0B7FDD8B99DF80730DB080E4A61
:104AA000537210E008238DF80730E3E710238DF8E8
:104AB0000730DFE718238DF80730DBE74FF0FF30D2
:104AC00070474FF0FF3003B05DF804FB0020FAE7B9
:104AD0004FF0FF30F7E700BF280000200F4BDB7AD4
:104AE000013B052B17D8DFE803F003070A0D10136D
:104AF000BC2303800020704762230380FAE72A2347
:104B00000380F7E714230380F4E70A230380F1E727
:104B100005230380EEE700230380EBE72800002055
:104B2000234B9B7A002B3AD000B583B0BB281AD90F
:104B300001238DF807301E4BDA7A9DF807309A4230
:104B400030D01B4B586819680DF107030122897892
:104B5000007801F057FD38BB9DF80720144BDA723E
:104B600003B05DF804FB612803D902238DF80730F8
:104B7000E1E7292803D903238DF80730DBE7132861
:104B800003D904238DF80730D5E7092803D9052375
:104B90008DF80730CFE706238DF80730CBE74FF0CD
:104BA000FF3070470020DBE74FF0FF30D8E700BF51
:104BB00028000020054B93F8243023B9034BDB89F0
:104BC0000380002070474FF0FF307047280000201E
:104BD0000D4B1B7A032B13D8DFE803F002060A0EF5
:104BE0000A4B036000207047094B036000207047A8
:104BF000084B036000207047074B0360002070479C
:104C00004FF0FF30704700BF280000200000034332
:104C1000000083423333034233338341114B5B7AC9
:104C2000032B1AD8DFE803F0020D11154FF480436F
:104C300003800C4BDB7C9BB103885B080380002066
:104C4000704741F69C730380F3E74FF48053038071
:104C5000EFE74FF400630380EBE74FF0FF3070475E
:104C60000020704728000020024B1B7C03700020AE
:104C7000704700BF2800002070B5174B93F8243010
:104C80002BBB00F0FE04144B9B7A13B3124A167C24
:104C900023401374A3420BD04FF0FF3514B90E4BD1
:104CA0001B7D3BB10120FFF7E7FA3CB9284670BDF8
:104CB0000025F3E70020FFF7DFFAF6E7FFF73CFDFA
:104CC0000028F3D0044B1E744FF0FF35EEE70025AB
:104CD000ECE74FF0FF35E9E7280000202E4B93F872
:104CE0002430002B49D0F0B583B005460F46164658
:104CF000294B9B7A002B43D0274B5868196801AB8E
:104D00000222897A007801F091FC00283BD19DF8BD
:104D100004009DF8054044EA0024AC4223D31E4B16
:104D200058684388B4EB530F0DD91B4B196801AB7E
:104D30000122497C007801F079FC38BB9DF80430F1
:104D400013F0100F14D1144B586819683B46EAB29F
:104D5000C97A007801F06AFCD8B9B4FBF5F4013CDB
:104D6000347003B0F0BD002333704FF0FF30F8E72C
:104D7000FFF7E2FC6FF00100F3E74FF0FF30704700
:104D80004FF0FF30EDE74FF0FF30EAE74FF0FF3034
:104D9000E7E74FF0FF30E4E728000020584B9B7C0A
:104DA000834200F09C8010B582B00446002844D0B5
:104DB000534B586819680DF10703012209790078EF
:104DC00001F034FC002840F08C809DF8073023F07F
:104DD00020038DF807304A4B586819680DF1070316
:104DE00001220979007801F00DFC00287CD1032014
:104DF00001F076FD02238DF80730414B93F8223005
:104E000013B182238DF807303D4B93F823302BB13B
:104E10009DF8073043F030038DF80730384B586861
:104E200019680DF107030122097D007801F0EAFB02
:104E3000002844D04FF0FF3044E0314B58681968E7
:104E40000DF1070301220979007801F0EFFB00283A
:104E50004DD12B4B9B7A13F0010F35D09DF80730C5
:104E600043F020038DF80730254B586819680DF181
:104E7000070301220979007801F0C4FB002839D129
:104E8000032001F02DFD1E4B93F822301BB380232D
:104E90008DF807301A4B93F823302BB19DF807306B
:104EA00043F030038DF80730154B586819680DF141
:104EB00007030122097D007801F0A4FBE8B9104B3B
:104EC0009C74002002B010BD9DF8073023F0200331
:104ED0008DF80730C8E700238DF80730DAE70020A7
:104EE00070474FF0FF30EDE74FF0FF30EAE74FF04B
:104EF000FF30E7E74FF0FF30E4E74FF0FF30E1E746
:104F0000280000201B4B93F8233083422DD010B58E
:104F100082B0044628B330238DF80730154B9B7CB4
:104F20002BB19DF8073043F002038DF80730114B89
:104F300093F822302BB19DF8073063F07F038DF892
:104F400007300C4B586819680DF107030122097DE1
:104F5000007801F057FB50B9064B83F8234002B0AC
:104F600010BD00238DF80730D8E7002070474FF0C0
:104F7000FF30F4E72800002028285FD810B582B061
:104F80000446B8B90020FFF7BDFF00238DF80430B8
:104F900007238DF805302E4B5868196801AB0222A3
:104FA000897C007801F02EFB00284AD1284B187527
:104FB00002B010BD0120FFF7A5FF20238DF80430BB
:104FC000012C26D0052C2BD9142C30D802238DF897
:104FD00005300A20FFF7A4FD9DF805309B0143F042
:104FE00007038DF805301A4B5868196801AB022287
:104FF000897C007801F006FB30BB154B08229A72C1
:1050000000241C7301221A752046FFF735FE204646
:10501000CEE700238DF805300520FFF781FDDBE7A3
:1050200001238DF805300520FFF77AFDD4E703232F
:105030008DF805301420FFF773FDCDE74FF0FF30FA
:1050400070474FF0FF30B3E74FF0FF30B0E700BFDD
:1050500028000020264B9B7A002B40D010B582B050
:105060000446234B93F82430002B3BD1204B1B7D6F
:1050700033B1431E9BB2272B0AD90020FFF77CFFD8
:10508000032C0AD9B4F57A7F08D94FF47A7405E075
:10509000C0B2FFF771FF00201FE004244FF47A70C4
:1050A00090FBF4F4013C8DF80740114B58681968E7
:1050B0000DF1070301224978007801F0A3FAA0B9A5
:1050C0009DF80700431C4FF47A7090FBF3F0084BF7
:1050D000D8814008FFF724FD002002B010BD4FF03A
:1050E000FF3070474FF0FF30F7E74FF0FF30F4E745
:1050F0002800002010B582B0044610F0700F50D088
:1051000001238DF80730334B586819680DF10703F8
:105110000122897C007801F075FA00284AD19DF8B7
:10512000073003F0BF032B4A137300238DF80730B9
:1051300014F0400F02D104238DF8073014F0200F33
:1051400005D19DF8073043F002038DF8073014F0C5
:10515000100F05D19DF8073043F001038DF807309B
:1051600014F0080F05D19DF8073043F038038DF88F
:105170000730184B586819680DF107030122C97CE4
:10518000007801F03FFAD8B90CB1082C1ED1114BB0
:105190009C7200241C75322001F0A2FB204602B054
:1051A00010BD18B100238DF80730ACE740238DF80F
:1051B0000730A8E7074B00229A724FF0FF30EEE766
:1051C000044B00229A724FF0FF30E8E70020FFF70F
:1051D00099FEDCE72800002010B582B080238DF80E
:1051E0000030674B586819686B460122897C00784B
:1051F00001F008FA002840F0A480642001F070FB60
:1052000000238DF800305E4B586819686B46012208
:10521000897C007801F0F6F9002840F09580584B21
:10522000586819686B460622897D007801F0FEF9FE
:10523000002840F08C809DF80510890001F00401E1
:105240009DF803305B0003F0020319439DF9013020
:1052500003F00103194352D0012946D0022948D155
:10526000474B0022DA74464BFF229A721A725A7226
:10527000DA724FF6FF71D9811A749A7401221A7387
:1052800083F82220002283F823205A751A75C3F868
:105290001620C3F81A20C3F81E2083F8242083F8B0
:1052A0002520DA844FF4FA60FFF760FB002854D120
:1052B0000220FFF7C9FB002852D12A20FFF730FC5B
:1052C000002850D13220FFF7C5FE00284ED1FFF74D
:1052D000D3FC00284DD1FFF761FD044600284BD1D7
:1052E000FFF708FF204602B010BD254B0122DA74FB
:1052F000B9E7244803F082FC4FF0FF34F2E7204B7B
:10530000586819686B460122C978007801F08EF957
:1053100000BB9DF8003013F00F0305D0042B09D01B
:10532000174B0022DA749EE7174803F0C9FC4FF0D0
:10533000FF34D7E7154803F0C3FC114B0122DA74A0
:1053400091E74FF0FF34CDE74FF0FF34CAE74FF05D
:10535000FF34C7E74FF0FF34C4E74FF0FF34C1E735
:105360004FF0FF34BEE74FF0FF34BBE74FF0FF34A0
:10537000B8E74FF0FF34B5E74FF0FF34B2E700BFB6
:1053800028000020BC2B0108E42B0108302C010868
:105390003AB370B582B00C461646194B9B7A1BB3D4
:1053A000030A8DF80430C0B28DF805000844144B90
:1053B0005D686B8998421ADC114B196801AB0222B7
:1053C000097E287801F01EF9A0B90D4B58681968BC
:1053D0003346E2B2497D007801F014F968B902B0B1
:1053E00070BD4FF0FF3070474FF0FF30F7E74FF0E0
:1053F000FF30F4E74FF0FF30F1E74FF0FF30EEE71A
:10540000280000203AB370B582B00C461646194BFE
:105410009B7A1BB3030A8DF80430C0B28DF80500E7
:105420000844144B5D686B8998421ADC114B19686B
:1054300001AB0222097E287801F0E4F8A0B90D4BF7
:10544000586819683346E2B2497D007801F0EEF8F9
:1054500068B902B070BD4FF0FF3070474FF0FF30B9
:10546000F7E74FF0FF30F4E74FF0FF30F1E74FF090
:10547000FF30EEE7280000202DE9F04F87B09A4674
:10548000294B93F82530002B3CD10746884691469E
:1054900000293AD00024BC421BD23E1B102EA8BFCC
:1054A0001026B5B208EB040B5A4629462046FFF7F2
:1054B0006FFF68BB02AA29462046FFF7A3FF50BB37
:1054C0002A4602A9584603F013FB38BB2C44A4B269
:1054D000E1E74FEA19238DF804308DF80590124B5F
:1054E0005868196801AB0222897E007801F08AF8B9
:1054F000B8B90D4B012283F82520A3F826A007B0E8
:10550000BDE8F08F4FF0FF30F9E74FF0FF30F6E7DE
:105510004FF0FF30F3E74FF0FF30F0E76FF001009E
:10552000EDE74FF0FF30EAE728000020234B93F827
:10553000243083423CD030B583B018B31F4B93F86E
:105540002530002B36D00020FEF796FE0020FFF716
:1055500025FC1A4DE88CFFF77DFD00248DF80740EF
:1055600068680DF1070301222321007801F04AF851
:10557000012085F82400FEF77FFEFFF7DDF82046C6
:1055800003B030BD0020FEF777FE0C4D2B7C8DF86C
:10559000073068680DF1070301222321007801F02C
:1055A00031F8002485F82440FFF7C6F82046E7E7E5
:1055B000002070474FF0FF30E2E700BF28000020D6
:1055C0002DE9F04188B005460E463D4B93F8247016
:1055D000FFB901A8FFF7ACF90DF10700FFF712FAC8
:1055E0006846FFF77BFA0DF10200FFF7E3FA344B50
:1055F00093F80A800DF10600FFF736FB0024012C1A
:105600000CDC002231462846FEF782FE30B1013420
:10561000F5E70020FFF78AFF0127DAE7022C1FD009
:105620000024012C07DC012202A905A8FEF770FE68
:1056300008B10134F5E7022C14D002A93046FEF778
:1056400047FDC6B205A92846FEF796FD10F0FF0FEC
:1056500004D000243EB944F0020404E00124F9E738
:10566000002400E00024164BFF221A725A72DA72EC
:105670004FF6FF71D9819A721A7401221A73BDF81C
:105680000400FFF773F99DF80700FFF7DDF9BDF897
:105690000000FFF745FABDF80200FFF7DBFC4046CB
:1056A000FFF728FD9DF80600FFF7E6FA1FB9204630
:1056B00008B0BDE8F0810120FFF738FFF7E700BF31
:1056C0002800002010B588B002A905A8FFF778FFD0
:1056D000032802D0012008B010BD01A8FFF778FA16
:1056E000019C0598FBF764FA2146FBF7B5FAFBF736
:1056F00079FC05900698FBF75BFA2146FBF7ACFABC
:10570000FBF770FC06900798FBF752FA2146FBF76F
:10571000A3FAFBF767FC079005A800F04DFA0DF11E
:105720000200FFF77BFABDF80220029B02FB03F3A5
:105730000293039B02FB03F30393049B02FB03F31B
:10574000049302A800F0C0FA0020C4E790F90030EA
:10575000002B01DD002070470FDB90F90130002B9A
:1057600001DD012070470ADB90F90230002B08DCD4
:1057700001DB072070470620704704207047052092
:1057800070470220704738B50546FFF7DFFF044633
:10579000E81CFFF7DBFF44EAC00424B2A81DFFF7B2
:1057A000D5FF44EA801080B238BD704708B5FFF7D6
:1057B00013FD08B1002008BD7820FFF79BFC10F016
:1057C000FF0F01D00120F6E77820FFF755FA10F01F
:1057D000FF0F2AD16420FFF73DFC10F0FF0F26D108
:1057E00000F038F910F0FF0F23D11748FFF7CBFF77
:1057F00000F03CF910F0FF0F1DD140F2731000F0E3
:10580000FBFC10F0FF0F18D1642000F0D7FA10F065
:10581000FF0F14D1FFF756FF98B90120FFF786FE5E
:1058200010F0FF00C7D00920C5E70220C3E703201E
:10583000C1E70420BFE70520BDE70620BBE707203E
:10584000B9E70820B7E700BF1C00002000000000F7
:105850002DE9F04F8FB00646029193460DF12103DA
:1058600001930DF1220300930DAB04AA09A90BA823
:1058700000F0CEFD002840F0C780BDF8223013F4C0
:10588000807F00F0C3800498FBF792F94FF04251FB
:10589000FBF7E2F982460598FBF78AF94FF042518F
:1058A000FBF7DAF905460698FBF782F94FF042510B
:1058B000FBF7D2F904460798FBF77AF94FF042510B
:1058C000FBF7CAF907464FF040412846FBF7C4F9F9
:1058D00081463946FBF7C0F9804651465046FBF7F2
:1058E000B3F803902146FBF7B7F901464046FBF7B2
:1058F000ABF8FAF7E9FD0AF087FE45A3D3E90023E8
:10590000FAF73AFEFBF74AF8306021462046FBF7EB
:105910009BF880463946FBF79FF9064629460398CF
:10592000FBF79AF901463046FBF78EF80646294602
:105930004846FBF791F9814621464046FBF78CF932
:1059400001464846FBF77EF84FF07E51FBF77CF8A6
:10595000FAF7BAFD804689463046FAF7B5FD424669
:105960004B460AF079FE2AA3D3E90023FAF704FE96
:10597000FBF714F8029B186021462846FBF76CF9E8
:10598000064639465046FBF767F901463046FBF7B5
:105990005BF80146FBF758F8064651465046FBF7C0
:1059A0005BF9804629462846FBF756F901464046F2
:1059B000FBF74AF8054621462046FBF74DF901461C
:1059C0002846FBF73FF8044639463846FBF744F9CA
:1059D00001462046FBF736F8FAF776FD04460D46F9
:1059E0003046FAF771FD22462B460AF035FE08A331
:1059F000D3E90023FAF7C0FDFAF7D0FFCBF8000097
:105A000000200FB0BDE8F08F0120FAE70220F8E790
:105A10006666666666A64C4038B50446C578437827
:105A200013F0010F09D005F03F00C00805F0070191
:105A30000131074B1B6803B19847637813F0080FD7
:105A400004D0034B5B680BB1A8099847002038BD10
:105A5000640B002008B5C8234FF48062024940F669
:105A6000F630FFF709FD08BDD82C010810B586B047
:105A700004464C4B1B68ADF80C301B0C8DF80E30F7
:105A8000494B1B68ADF808301B0C8DF80A30474BAA
:105A90001B68ADF804301B0C8DF80630444B1B68B6
:105AA000ADF800301B0C8DF8023000F0030101F15D
:105AB00018030DEB030111F80C3C8DF81430C0F302
:105AC000C10202F118030DEB030212F80C3C8DF831
:105AD0001530C0F3811318336B4413F80C0C8DF898
:105AE000160011F8101C8DF8101012F8102C8DF8FB
:105AF000112013F8103C8DF8123005AA032140F252
:105B00002640FFF745FC002840D104AA032140F2BB
